:020000040800F2
:10000000600600209D010008910F0008250C0008E3
:100010008D0F000823090008A52300080000000038
:10002000000000000000000000000000391C000873
:10003000ED0900080000000015130008511D00081C
:10004000B7010008B7010008B7010008B7010008B0
:10005000B7010008B7010008B7010008B7010008A0
:10006000B7010008B7010008B7010008B701000890
:10007000B7010008B7010008B7010008B701000880
:10008000B7010008B7010008B7010008B701000870
:10009000B7010008B7010008B7010008B701000860
:1000A000B7010008B7010008B7010008B701000850
:1000B000B7010008B7010008B7010008B701000840
:1000C000B7010008B7010008B7010008B701000830
:1000D000B701000821210008B7010008B701000896
:1000E000B7010008B7010008B7010008B701000810
:1000F000B7010008B7010008000000000000000080
:100100000000000000000000B7010008B70100086F
:100110000000000000000000B7010008B70100085F
:10012000B7010008B7010008B7010008B7010008CF
:10013000B7010008B7010008B7010008B7010008BF
:10014000B7010008000000000000000000000000EF
:10015000000000000000000000000000000000009F
:100160000000000000000000B7010008B70100080F
:10017000B701000800000000B701000800000000FF
:1001800000000000B7010008DFF80CD000F0F0FA22
:100190000048004769310008600600200648804793
:1001A00006480047FEE7FEE7FEE7FEE7FEE7FEE75C
:1001B000FEE7FEE7FEE7FEE7851F0008890100086D
:1001C0002DE9FE4F804681EA0300C00F0C460090E7
:1001D00021F0004123F00045B8EB0200A94105D20F
:1001E0004046214690461C460B46024623F00040FE
:1001F000104347D0270DC7F30A00C3F30A510290FA
:10020000401A019040286BDAC3F3130040F4801BBE
:100210000098924620B10023D2EB030A63EB0B0B4C
:1002200001985946C0F14002504600F0DBF90646FD
:100230000D4650465946019A00F0F3F910EB0800BC
:100240006141002487EA115284EAE7731A4340D0DF
:10025000009A62B3019A012A4FEA075215DC001B8B
:1002600061EB02014FF0004202EA0752CDE9004281
:10027000001C41F5801132462B4600F02AFA03B0EB
:10028000BDE8F08F40462146F9E7001B61EB020113
:10029000001C41F5801300185B412018A2F50017DF
:1002A00047EB030140EAD570B6196D4111E06D08C6
:1002B0004FEA360645EAC0754FEA0752001B61EB6C
:1002C0000201001C41F5801149084FEA3000001975
:1002D000514132462B4603B0BDE8F04F00F0EAB979
:1002E0000098012240000023D0EB020263EBE07390
:1002F000009821464FEAE074B8EB000061EB04017E
:10030000E9E783F000435BE781F0004158E72DE91E
:10031000FE4F81EA030404F0004421F00041009400
:100320004FF0000B23F0004350EA01045ED052EA84
:1003300003045BD0C3F30A54C1F30A552C44A4F25E
:10034000F3340194A0FB0254C1F3130141F4801172
:10035000C3F3130343F4801301FB024400FB034E79
:10036000840A970A44EA815447EA8357A4FB076842
:1003700002958D0A05FB07854FEA932C04FB0C546C
:100380002705029D4FEA065847EA1637B5EB0805E0
:100390006EEB070C870E920E47EA811742EA831232
:1003A000A7FB0201B6EB0B0164EB00042B0D43EA43
:1003B0000C335E1844EB1C50DA465146E7FB020151
:1003C000C5F313044FEA0B3343EA14534FEA0432E4
:1003D000019C43EA0603A4F10C040294009CCDE9BD
:1003E00000B400F076F903B0BDE8F08F00200146BC
:1003F000F9E72DE9F04D81EA030404F0004B21F008
:10040000004514464FF0000A23F0004150EA05026F
:1004100020D054EA01021DD0C5F30A570246C5F3A5
:100420001303C1F31300C1F30A5640F4801543F4DB
:100430008013A7EB0608101BD64608F2FD3873EBB5
:10044000050002D308F1010801E092185B41B8F100
:10045000000F03DA00200146BDE8F08D00204FF4C4
:100460008011064684460EE0171B73EB050705D383
:10047000121B63EB050306434CEA010C49084FEAE3
:10048000300092185B4150EA0107EDD152EA0300B7
:1004900012D082EA040083EA0501084305D0101B4C
:1004A000AB4106D20122002306E000224FF00043B8
:1004B00002E06FF0010253101AEB06004CEB0851FA
:1004C00010EB0A0041EB0B01BDE8F04D00F0F2B873
:1004D0000EB5C10F80EAE0700844CA07002140F25F
:1004E00033438DE80E000A460B4600F0F2F803B0E5
:1004F00000BDC1F30A5210B5C1F3130140F2FF333E
:1005000041F480119A4201DA002010BD40F23343D9
:100510009A42A2F2334203DC524200F072F810BD5C
:10052000904010BD00F0004230F000400AD0C10DF4
:1005300001F56071C0F3160042EA0151C20840079C
:1005400011437047002001467047000030B5041E7B
:1005500071F1000404DB4FF00044404264EB010100
:10056000141E73F1000405DB1C464FF00043524299
:1005700063EB04038B4208BF824230BD30B5041EDA
:1005800071F1000404DB4FF00044404264EB0101D0
:10059000141E73F1000405DB1C464FF00043524269
:1005A00063EB0403994208BF904230BD01F0004361
:1005B00030B421F0004150EA010206D00A0DA2F544
:1005C0006072C1F31301002A02DC30BC00207047C6
:1005D000440F44EAC104C100E01830BC00EBC25033
:1005E00000F031B8202A04DB203A00FA02F10020A2
:1005F00070479140C2F1200320FA03F31943904061
:100600007047202A04DB203A21FA02F000217047CB
:1006100021FA02F3D040C2F120029140084319466A
:100620007047202A06DBCB17203A41FA02F043EA52
:10063000E07306E041FA02F3D040C2F1200291409B
:100640000843194670470029A8BF7047401C49005D
:1006500008BF20F00100704710B4B0FA80FC00FA27
:100660000CF050EA010404BF10BC704749B1CCF152
:10067000200421FA04F411FA0CF118BF01212143DE
:100680000843A3EB0C01CB1D4FEA00614FEA102099
:1006900042BF002010BC704700EBC350104400293B
:1006A000A4BF10BC7047401C490008BF20F00100E7
:1006B00010BC704710B5141E73F1000408DA401C1A
:1006C00041F1000192185B411A4301D120F0010071
:1006D00010BD2DE9F04D92469B4611B1B1FA81F261
:1006E00002E0B0FA80F220329046FFF77BFF04462A
:1006F0000F4640EA0A0041EA0B0153465A460843B6
:1007000013D0114653EA010019D0C8F140025046F7
:10071000FFF777FF05460E46504659464246FFF71B
:1007200061FF084305D0012004E020463946BDE8BA
:10073000F08D0020054346EAE0762C4337430A98C3
:100740006305E40AA0EB08000022FD0A44EA4754CE
:100750000A3002D500200146E9E701051019694178
:10076000DDE9084500196941BDE8F04DA2E7000048
:10077000064C074D06E0E06840F0010394E80700EE
:1007800098471034AC42F6D3FFF702FD0039000859
:100790002039000821B1826842F00102826003E042
:1007A000826822F001028260704710B50446012180
:1007B000480200F0EFFD00214FF4007000F0EAFD68
:1007C00010BD014600208A6802F004020AB101202F
:1007D00000E0002070470146C86C80B270470246B6
:1007E000002013680B400BB1012000E0002070478F
:1007F000014600208A6802F008020AB1012000E0E8
:100800000020704730B5024600200023506820F4D5
:1008100080700C7840EA0420506090680A4C2040B8
:10082000D1E901542C434D7844EA450420439060BB
:10083000D06A20F470000C7B641EE4B2234340EACB
:100840000350D06230BD0000FDF7F1FFF0B5044663
:100850000D4600200021092D11DDE068A5F10A06F2
:1008600006EB4607072606FA07F18843A5F10A06B4
:1008700006EB460603FA06F10843E0600CE0206947
:1008800005EB4507072606FA07F1884305EB450601
:1008900003FA06F108432061072A0FDA606B561E3F
:1008A00006EB86071F2606FA07F18843561E06EB5D
:1008B000860605FA06F10843606322E00D2A0FDA86
:1008C000206BD61F06EB86071F2606FA07F1884322
:1008D000D61F06EB860605FA06F10843206310E0F2
:1008E000E06AA2F10D0606EB86071F2606FA07F15D
:1008F0008843A2F10D0606EB860605FA06F10843C9
:10090000E062F0BD816841F0080181607047816854
:1009100041F4A00181607047816841F00401816069
:10092000704700BFFEE700002A48B0F9000000EE63
:10093000100AB8EEC00ADFED280A20EE200A274888
:1009400080ED000A2348B0F9020000EE100AB8EE6C
:10095000C00ADFED210A20EE200A204880ED010ABE
:100960001C48B0F9040000EE100AB8EEC00ADFED32
:100970001A0A20EE200A194880ED020A1848B0F938
:10098000000000EE100AB8EEC00ADFED160A20EEF5
:10099000200A154880ED000A1148B0F9020000EE67
:1009A000100AB8EEC00ADFED0F0A20EE200A0E484A
:1009B00080ED010A0A48B0F9040000EE100AB8EE12
:1009C000C00ADFED080A20EE200A074880ED020A7F
:1009D00070470000680000202BCD9C3A44020020A4
:1009E0006E00002098FA793D50020020704730B523
:1009F0000446254604E04FF47A7000F004F86D1EBA
:100A0000002DF8D130BD014605E0072200E0521E5E
:100A1000002AFCD1491E0029F7D17047F0B50A46DB
:100A200000210023002400BF3DE0012505FA01F369
:100A3000156805EA03049C4234D11579012D02D0D2
:100A40001579022D16D185684F000326BE40B543A7
:100A5000856055794E00B540866835438560868847
:100A600001258D40AE438680868895798D40ADB254
:100A70002E43868005684F000326BE40B5430560BF
:100A800015794E00B540066835430560C5684F00CE
:100A90000326BE40B543C560D5794E00B540C66853
:100AA0003543C560491C1029BFD3F0BDF0B5002304
:100AB00000244D07ED0E02FA05F3CE1000F12005DB
:100AC00055F826504E07F70E0F26BE40B543CF10FF
:100AD00000F1200646F82750CE1000F1200555F809
:100AE000265045EA0304CE1000F1200545F82640C3
:100AF000F0BDB0EE402A31EEE00AF0EE402A31EED1
:100B0000420AB0EE403A82EE830AF0EE403AB0EE8E
:100B1000600A02EE630A7047B0EE402A31EEE00A46
:100B2000F0EE402A31EE420AB0EE403A82EE830AFD
:100B30007047000010B50446E1B2052301220948C0
:100B4000FFF784FE0748FFF7E2FE00BF02210548D9
:100B5000FFF745FE0028F9D00248FFF73CFE00B23F
:100B600010BD0000002401402DE9F04107460C466D
:100B70000025002609E03846FFF7DCFF05444FF466
:100B80007A70FFF740FF701C46B2A642F3DB95FB7C
:100B9000F4F000EE100AF8EEC00A9FED051A80EEA0
:100BA000810AF0EE080A20EE200ABDE8F08100007C
:100BB000000000452DE9F04100240025002600201A
:100BC00015490870002712E000F0FEFC1348B0F948
:100BD000000004441148B0F9020005440F48B0F980
:100BE000040006440520FFF702FF781CC7B21E2F41
:100BF000EADB1E2094FBF0F495FBF0F596FBF0F693
:100C000020B20749088028B2488030B2888001208D
:100C100001490870BDE8F081740000206E000020DA
:100C20006200002000BFFEE7C161704721B1026889
:100C300042F00102026003E0026822F00102026059
:100C4000704710B502460023002093690B400BB19A
:100C5000012000E0002010BD10B50A460021036805
:100C600023F0010303600168134B1940D2E90134FA
:100C700043EA042319430160136823F0706303619E
:100C8000036843F00103036000218160C1601469BF
:100C9000936943EA04018160836843F400438360FD
:100CA000D16803680B4303604168044B19405369E2
:100CB0001943416010BD0000FFE0CF00FF7FFF0738
:100CC0000146486AC0B2704781627047F0B50C4671
:100CD000059D00214168074E3140C4F309064FF4D9
:100CE0007F0707EA02473E431E432E4331434160DC
:100CF000F0BD0000009800FC00B587B029484069AD
:100D000040F40030274948610120019003208DF80C
:100D1000080000208DF80B0003208DF8090001A9C0
:100D20004FF09040FFF77AFE4FF4804000F0F4FA65
:100D30001D48FFF73AFD0121480200F01BFB00208F
:100D40008DF80C008DF80D004FF460200490002009
:100D5000059001208DF8180003A91348FFF752FDF4
:100D60000523012200211048FFF770FD01210E48E4
:100D7000FFF710FD0C48FFF7C5FD00BF0A48FFF75D
:100D800037FD0028FAD10848FFF7C6FD00BF064826
:100D9000FFF717FD0028FAD101210348FFF7FAFCFD
:100DA00007B000BD00100240002401403A484069ED
:100DB00040F48020384948610846406940F40020EA
:100DC00048610846406940F480104861084640691F
:100DD00040F4003048610846406940F40010486122
:100DE00000202E4908602D4908310860091D08605F
:100DF0002A48006840F4887028490860274808306D
:100E0000006840F44C7025490831086023481430CC
:100E1000008840F0140021491431088020480068FF
:100E200040F4A0201E4908600846806840F4702005
:100E300088600846808A40F44070888219480068BB
:100E400040F480301749086016480830006840F4C4
:100E5000403014490831086012481430008840F4CA
:100E600080701049143108800F48006840F08040BD
:100E70000D4908600C480830006840F040400A49BD
:100E80000831086008481430008840F400400649E2
:100E90001431088070470000001002400004004830
:100EA00000100048000C00480008004800B589B058
:100EB0000121480400F03EFA0121880300F05AFAAB
:100EC00007220921C806FFF7F1FD07220A214FF08A
:100ED0009040FFF7EBFD4FF40070079002208DF873
:100EE000200003208DF8210000208DF822008DF8CD
:100EF000230007A94FF09040FFF790FD4FF480606A
:100F0000079002208DF8200003208DF8210007A90A
:100F10004FF09040FFF782FD4FF4E1300190002048
:100F200002900390049006900C20059001A90E48B1
:100F300001F0AEF925208DF8000000208DF80100A9
:100F400001208DF802008DF80300684600F022F8B9
:100F500001220649044801F07EF90121024801F00E
:100F60004AF909B000BD0000003801400501050044
:100F70000548008880F0040003490880084600887E
:100F800080F01000088070471404004800BFFEE79E
:100F90007047000070B5002100230F22C47804B30D
:100FA000154C246804F4E064C4F5E064210AC1F13E
:100FB0000403CA40447804FA03F1847814402143BE
:100FC00009010E4C0678A155047804F01F05012490
:100FD000AC4005786D11AD0005F1E025C5F8004184
:100FE00009E0047804F01F050124AC40044D0678A4
:100FF000761145F8264070BD0CED00E000E400E0FD
:1010000080E100E002490143024A1160704700009C
:101010000000FA050CED00E0B0EE401A31EE602A57
:10102000B0EE420A90ED032A30EE422AD0ED082AB3
:1010300082EE223AF0EE431A80ED030A90ED002A88
:1010400022EE002A80ED042A90ED022A22EE212AC7
:1010500080ED062A90ED042AD0ED052A32EE222AF0
:10106000D0ED062A32EE222A81ED002A70470000D8
:1010700070B52DED088B0446F0EE408AB0EE609A14
:101080000D4638EEC90AB0EE408A94ED030A38EEF8
:10109000400AD4ED080A80EE201AF0EE419A84ED61
:1010A000038A18EE100AFFF73DFA41EC1B0BB0EE75
:1010B0004B0AF0EE6B0A01F0F5FAB0EE40AAF0EE42
:1010C00060AA9FED390B53EC102B51EC1A0BFFF774
:1010D00055FA20D818EE100AFFF724FA41EC1B0B42
:1010E000B0EE4B0AF0EE6B0A01F0DCFAB0EE40AA6B
:1010F000F0EE60AA9FED2E0B53EC102B51EC1A0B67
:10110000FFF724FA07D894ED070AD4ED080A08EE91
:10111000200A84ED070A94ED070AD4ED090AB4EE1B
:10112000E00AF1EE10FA03DD94ED090A84ED070AF6
:1011300094ED070AD4ED090AF1EE600AB4EEE00A74
:10114000F1EE10FA05D294ED090AB1EE400A84EDF1
:10115000070A1948007818B99FED180A84ED070AA4
:1011600094ED000A20EE080A84ED040A94ED010AC9
:10117000D4ED070A20EE200A84ED050A94ED020A58
:1011800020EE290A84ED060A94ED040AD4ED050A3E
:1011900030EE200AD4ED060A30EE200A85ED000A72
:1011A000BDEC088B70BD0000000000000000E03FB7
:1011B000000000000000894039000020000000000D
:1011C000B3EE040A314880ED000A9FED310A80ED4C
:1011D000020A9FED300A80ED080A90ED000A2E48C1
:1011E00080ED000A294890ED020A2B4880ED020AA2
:1011F000264890ED080A284880ED080A9FED270A46
:10120000274880ED000A9FED270A80ED010A9FED37
:10121000250A80ED020A90ED000A234880ED000ABD
:101220001F4890ED010A204880ED010A1C4890ED0E
:10123000020A1D4880ED020AB1EE080A1B4880ED43
:10124000000A9FED180A80ED020AB3EE0E0A80ED47
:10125000010A9FED100A80ED080A9FED150A80ED46
:10126000090A9FED140A0E4880ED090A9FED110A44
:101270000D4880ED090A9FED070A094880ED080A2C
:101280009FED040A084880ED080A70471801002005
:101290009A99193E6F12833A4C0100203333334040
:1012A00080010020CDCCCC3DB4010020E80100201D
:1012B000000096430000484310B540F25534A04268
:1012C00000DD204640F25534A14200DD214640F2C7
:1012D0005534A24200DD224640F25534A34200DDDF
:1012E0002346002800DA0020002900DA0021002A25
:1012F00000DA0022002B00DA0023044C2060241DB9
:101300002160034C22602407636310BD3418004041
:10131000340C0040704700000549496821F4404101
:10132000034A51601146496801435160704700000B
:101330000010024029B1064A52690243044B5A6127
:1013400004E0034A52698243014B5A61704700002E
:101350000010024029B1064AD2690243044BDA6107
:1013600004E0034AD2698243014BDA61704700000E
:101370000010024029B1064A92690243044B9A6167
:1013800004E0034A92698243014B9A61704700006E
:101390000010024029B1064AD2680243044BDA60C9
:1013A00004E0034AD2688243014BDA6070470000D0
:1013B0000010024070B50021002300240025002207
:1013C0007A4E766806F00C0121B1042905D008296F
:1013D00021D105E0764E066020E0764E06601DE0E5
:1013E000724E766806F47013704E766806F4803498
:1013F000022606EB93431CB96F4E5E43066009E07C
:101400006A4EF66A06F00F06751C6A4EB6FBF5F6D4
:101410005E43066002E0664E066000BF00BF634E9A
:10142000766806F0F0010909644E725C0668D640E1
:1014300046605E4E766806F4E061090A5F4E725CB3
:101440004668D6408660594E766806F46051C90AEF
:101450005A4E725C4668D640C660544E766806F4B2
:101460004041890B564E725CC668B6FBF2F60661C7
:101470004E4E766806F07841C1F3C361514E725CFE
:101480000668B6FBF2F64661484E366B06F040063B
:10149000402E03D048F21206866102E04FF4004667
:1014A0008661424E366B06F01006102E02D0404E7A
:1014B000C66101E00668C6613C4E366B06F0200648
:1014C000202E02D03A4E066201E006680662374ED0
:1014D000366B06F0030616B9C668466219E0334E4D
:1014E000366B06F00306012E02D10668466210E054
:1014F0002E4E366B06F00306022E02D1B60346626C
:1015000007E02A4E366B06F00306032E01D1284E63
:101510004662264E366B06F4403616B986688662F9
:101520001DE0224E366B06F44036B6F5803F02D100
:101530000668866213E01D4E366B06F44036B6F53B
:10154000003F03D14FF40046866208E0174E366B29
:1015500006F44036B6F5403F01D1154E8662134E73
:10156000366B06F4402616B98668C6621DE00F4E3B
:10157000366B06F44026B6F5802F02D10668C662A7
:1015800013E00A4E366B06F44026B6F5002F03D161
:101590004FF40046C66208E0044E366B06F440265F
:1015A000B6F5402F01D1024EC66270BD0010024058
:1015B00000127A000024F40000093D00A40000207D
:1015C000B4000020B800002000B52DED0C8B87B0D2
:1015D0006B480088ADF8040069484088ADF8060003
:1015E00067488088ADF808000E203B23D02203A96D
:1015F0000090644801F02CFC9DF80D009DF80C1043
:1016000040EA012000B2604908809DF80F009DF873
:101610000E1040EA012000B25B4948809DF811009D
:101620009DF8101040EA012000B2574988809DF8CB
:1016300015009DF8141040EA012000B250490880BE
:101640009DF817009DF8161040EA012000B24C49A1
:1016500048809DF819009DF8181040EA012000B25A
:101660004749888049480078012817D108460088F2
:1016700047490988401A00B2414908800846408815
:1016800043494988401A00B23D494880084680884D
:101690003F498988401A00B239498880BDF908104D
:1016A000374AB2F90420881AFEF712FF41EC1B0BEF
:1016B000B0EE4B0AF0EE6B0A00F0F4FFB0EE409A89
:1016C000F0EE609ABDF906102D4AB2F90220881A90
:1016D000FEF7FEFE41EC1D0BB0EE4D0AF0EE6D0A7A
:1016E00000F0E0FFB0EE40BAF0EE60BABDF90410D1
:1016F000234AB2F90020881AFEF7EAFE41EC1D0BDE
:10170000B0EE4D0AF0EE6D0A00F0CCFFB0EE40CA2C
:10171000F0EE60CA53EC1B2B51EC1C0BFEF750FD96
:1017200041EC1A0B53EC192BFEF74AFD41EC180B58
:10173000FEF7DFFE1749088008460088142805DAFE
:1017400015480088401C1449088004E00020124914
:1017500008801249087010480088642802DD0120C2
:101760000E4908700E48007830B90B48008864288C
:1017700002DD01200A49087007B0BDEC0C8B00BDEA
:101780006E00002000580040680000207400002017
:101790006200002056000020580000207500002044
:1017A0005400002010B52DED0E8BF848007800286D
:1017B0007BD0F7488078F649497840EA0120AB3879
:1017C000F44908800846008801F078FABCEEC00AA7
:1017D00010EE100AEF490880ED480079EC49C9780D
:1017E00000EB0120A0F5007000EE100AB8EEC00A70
:1017F000F2EE000A80EE201AB1EE410AE64880EDD2
:10180000000AE3488079E249497900EB0120A0F51C
:10181000007000EE100AB8EEC00AF2EE000A80EE88
:10182000201ADD4880ED011AD948007AD849C979D3
:1018300000EB0120A0F5007000EE100AB8EEC00A1F
:10184000D54880ED020A90ED020A10EE101A084603
:10185000FEF768FE41EC1E0BB0EE4E0AF0EE6E0A8B
:1018600000F020FFB0EE40CAF0EE60CACA4890ED2A
:10187000020A10EE101A0846FEF754FE41EC1D0B4A
:1018800053EC1C2BFEF743FD41EC1B0B9FEDC30BF0
:1018900053EC102BFEF7ADFD41EC1A0BFEF786FE64
:1018A00009EE100A9FEDBF1A00E0BAE1DFEDBE0AB3
:1018B000B0EE490A01F0DEF9F0EE408ADFEDBB0A36
:1018C00000F080FFBA4880ED020AB34890ED000AAC
:1018D00020EE000AD0ED010A90ED011AB0EE408A28
:1018E00000EE818AF7EE000A78EE200AB0EE600A78
:1018F00000F0E2FE10EE104A2046FEF713FE41EC27
:101900001A0BA54890ED000A10EE101A0846FEF7D3
:1019100009FE41EC1E0BB0EE4E0AF0EE6E0A00F02E
:10192000C1FEB0EE40CAF0EE60CA9B4890ED000ADE
:1019300010EE101A0846FEF7F5FD41EC1D0B53ECB6
:101940001C2BFEF7E4FC41EC1B0B53EC1A2BFEF7AF
:1019500050FD41EC190BFEF729FE95490860F7EEA2
:10196000000A78EE200AB0EE600A00F0A5FE10EE44
:10197000104A2046FEF7D6FD41EC190B864890ED43
:10198000010A10EE101A0846FEF7CCFD41EC1E0BC2
:10199000B0EE4E0AF0EE6E0A00F084FEB0EE40CAE1
:1019A000F0EE60CA7C4890ED010A10EE101A08466D
:1019B000FEF7B8FD41EC1D0B53EC1C2BFEF7A7FC0A
:1019C00041EC1B0B53EC192BFEF713FD41EC1A0BEA
:1019D000FEF7ECFD76494860084690ED020A75482E
:1019E00080ED000A0846D0ED000AB0EE600AF1EE84
:1019F000040A00F0E7FE6E4880ED000AD0ED010A0F
:101A0000B0EE600AF1EE040A00F0DCFE684880EDFA
:101A1000010A6948007830B90120674908705C48BC
:101A2000407A664908705A48407A64490978884281
:101A30000ED063480078012803D102206049087065
:101A400002E001205E4908705148407A5B49087005
:101A50005B48007801287CD1554890ED010A10EED2
:101A6000101A0846FEF75EFD41EC1A0BB0EE4A0A6A
:101A7000F0EE6A0A00F016FEB0EE409AF0EE609AC0
:101A80009FED500B53EC102B51EC190BFEF776FD2C
:101A90001ED2474890ED010AF2EE0E0AB4EEE00ABB
:101AA000F1EE10FA03DD0120484908700CE04048CF
:101AB00090ED010AFAEE0E0AB4EEE00AF1EE10FA29
:101AC00002D20220414908700020414908803AE0D2
:101AD000374890ED000A10EE101A0846FEF722FD76
:101AE00041EC1A0BB0EE4A0AF0EE6A0A00F0DAFD99
:101AF000B0EE409AF0EE609A9FED320B53EC102B53
:101B000051EC190BFEF73AFD1DD2294890ED000A61
:101B1000F2EE0E0AB4EEE00AF1EE10FA03DD032055
:101B20002A4908700CE0224890ED000AFAEE0E0AED
:101B3000B4EEE00AF1EE10FA02D204202349087054
:101B40000020234908809FED230A194880ED000AF0
:101B500000E003E09FED1F0A80ED010A0C48807A47
:101B60001D49087008460078D0B30A48008800EE86
:101B7000100AB8EE400AF3EE0E0AB4EEE00AF1EEF7
:101B800010FA31D20120154908702DE037000020ED
:101B90001C0200203C0000202C020020000000005D
:101BA00000E075400000B9430000B9C300000C42DA
:101BB000380200204C00002048000020490000208E
:101BC000440000200000000000002E4045000020DE
:101BD00046000020000000003800002039000020EE
:101BE000FFE70020104908700F480078B0B10F4897
:101BF000007898B90E48008800EE100AB8EE400A46
:101C0000F3EE0E0AB4EEE00AF1EE10FA06DD064835
:101C10000078012802D102200349087000200549FC
:101C20000870BDEC0E8B10BD390000203400002080
:101C30003C00002037000020704700000CB5002059
:101C4000019000903148006840F480302F490860CE
:101C500000BF2E48006800F4003000900198401C3E
:101C60000190009818B90198B0F5A06FF1D12748FC
:101C7000006800F4003010B10120009001E0002065
:101C800000900098012840D11220214908601F4887
:101C900040681E49486008464068486008464068F9
:101CA00040F4806048600846406820F47C1048603A
:101CB0000846406840F4E81048600846C06A20F0D2
:101CC0000F00C8620846C06A40F00100C8620846BA
:101CD000006840F08070086000BF0C48006800F0A9
:101CE00000700028F9D00948406820F00300074937
:101CF00048600846406840F00200486000BF034862
:101D0000406800F00C000828F9D10CBD001002401A
:101D100000200240034800884FF6FF610840014957
:101D200008807047140C0048042808D14FF0E021C7
:101D3000096941F004014FF0E022116107E04FF022
:101D4000E021096921F004014FF0E02211617047A0
:101D500010B55948007800287DD058480078401CBC
:101D60005649087056480078F0BBFFF72DFCFEF787
:101D7000DBFD52480078052190FBF1F201FB1200D7
:101D800038BBFFF70FFD00F0B5FE4E4890ED011A8D
:101D9000F0EE410A4C4890ED011ADFED4C1A21EEAD
:101DA000211AB0EE410A4A494A48FFF735F9454839
:101DB00090ED001AF0EE410A434890ED001ADFED75
:101DC000431A21EE211AB0EE410A43494348FFF776
:101DD00023F93A480078032190FBF1F201FB12004D
:101DE00008B900F095FF00E003E000F02FFD01F0DE
:101DF00033FA32480078322190FBF1F201FB1200F5
:101E0000002858D12D49087035480068401C3449D5
:101E1000086008460068282804D9002008600120CE
:101E20003049087000F0C0FA2E48007810B92448F4
:101E3000007880B39FED2C0A234880ED000A9FEDC7
:101E40002A0A80ED010A9FED280A80ED020A9FED23
:101E5000260A264800E02EE080ED000A244800888B
:101E600000EE100AB8EE400ADFED220AB4EEE00AF6
:101E7000F1EE10FA02DDFA201D4908801E4890EDAF
:101E8000020AF2EE0E0AB4EEE00AF1EE10FA02DDFA
:101E900000201A4908701648008800EE100AB8EEB3
:101EA000400AF3EE0E0AB4EEE00AF1EE10FA02D2A6
:101EB00000201349087010BD00000020140000200D
:101EC00030000020CC00002038020020CDCC8C3F18
:101ED0000C00002018010020080000204C01002008
:101EE000400000203A000020000000004C000020CC
:101EF0003C00002000007A4344020020390000200A
:101F00004800002070B5174800684FF47A71B0FBA4
:101F1000F1F4E108B1F1807F00D31DE021F07F40B2
:101F2000401E4FF0E022506150170F22002807DAC0
:101F300013071E0E0C4B00F00F052D1F5E5503E01E
:101F400013071D0E094B1D5400BF00204FF0E02267
:101F500090610720106100BF6FF00400FFF7E4FEFE
:101F600070BD00009000002018ED00E000E400E0EB
:101F70000348808A80F4807001498882704700009D
:101F80000010004810B51848006840F47000164969
:101F900008601648406800F47F001449486008460D
:101FA000006813490840114908600846006820F499
:101FB000802008600846406820F4FE00486008461B
:101FC000C06A20F00F00C8620846006B094908404B
:101FD0000649086300208860FFF730FE4FF000607C
:101FE00001498039086010BD88ED00E00010024012
:101FF000FFFFF6FE8C0FFF0F10B501214020FFF709
:10200000A9F94FF47A701A4908600320091F088063
:1020100017481438008840F06000154914390880CA
:102020000846008840F0080008800846008840F410
:10203000C04008800846008840F4006008800C48D2
:102040000C38008841F21111084309490C39088005
:1020500007482C38008840F0010005492C390880D9
:102060000020034908310860091D086010BD000008
:102070002C18004010B501210846FFF76BF94FF40A
:102080007A70C106C862032008850846008B40F0BC
:10209000600008830846008B40F00800088308466B
:1020A000008C41F211110843890708840846008812
:1020B00040F0010008800020486310BD10B50121E8
:1020C0000820FFF747F94FF47A701449086003209D
:1020D000091F088011481438008840F060000F493B
:1020E000143908800846008840F0080008800B4832
:1020F0000C38008841F21111084308490C39088056
:1021000006482C38008840F0010004492C3908802A
:10211000002002490831086010BD00002C0C00406E
:1021200010B52849284800F071F8002848D0254902
:10213000254800F057F8244800F010F92349244AB4
:1021400012788854002023490870234908602348E6
:10215000007888B11E480078401C1D490870084668
:1021600000780D282CD101201D49087000201B4942
:1021700008701749087023E01948007800BB13481D
:102180000078552808D101201449087010480078BB
:10219000401C0F49087013E00C480078662808D1ED
:1021A00001200E4908700A480078401C0849087050
:1021B00006E00020064908700949087007490870C0
:1021C00010BD000005010500003801401C02002080
:1021D000360000203A00002040000020350000209A
:1021E0003700002010B5002200230A0C012404FA55
:1021F00002F3036210BD21B1026842F001020260E5
:1022000003E0026822F001020260704770B50246E6
:102210000B460024002100250020C3F30725D9B276
:10222000012606FA01F1012D02D11668314006E0BF
:10223000022D02D15668314001E0966831401C0CF5
:10224000012606FA04F4D669344011B10CB101201C
:1022500000E0002070BDF0B50346002400260025F4
:1022600000201846C1F30724CEB2012707FA06F56D
:10227000022C01D1001D02E0032C00D108301AB15C
:1022800007682F43076002E00768AF430760F0BDAF
:102290002DE9F0418CB004460D460027B8460026D3
:1022A000206820F001002060666826F44056A86887
:1022B00006436660266841F20C608643E9686868F8
:1022C00008432969084306432660A66826F4407639
:1022D00068690643A6606846FFF76CF81D488442AB
:1022E00002D1DDF8248007E01B48844202D1DDF8EA
:1022F000288001E0DDF82C80206800F4004060B107
:102300004FEA48002968B0FBF1F74FEA4800296816
:10231000B0FBF1F201FB120607E02868B8FBF0F70A
:102320002868B8FBF0F100FB11862868B6EB500F67
:1023300000D37F1C206800F4004038B1C7F3420688
:102340004FF6F07107EA010040EA0607A7810CB0DA
:10235000BDE8F08100380140004400400146888C0F
:10236000C0F30800704700000B48008880F00400AC
:10237000094908800846008880F010000880074856
:10238000008880F48070054908800548008880F442
:10239000004003490880704714040048140C0048AA
:1023A0001408004800BFFEE70E4890ED000AF0EE6A
:1023B000080AB4EEE00AF1EE10FA05D20A480078F5
:1023C000401C0949087002E00020074908700648CF
:1023D00000783C2805DD00200349087001200349EE
:1023E00008707047040000203100002030000020F9
:1023F0004100080218BF04200A0E18BF40F0010077
:102400004FF07F4232EA010108BF40F0020001288C
:1024100008BF05207047000010B54FF00E402DEDAD
:10242000028BB0EE408A18EE104A00EB4400B0F187
:10243000506F4AD84FF0FC40B0EB440F22D2B0EEC0
:10244000C80AF7EE000A30EEC00AF6EE000A60EEA7
:10245000208A18EE900A01F021FA01EE100A14F019
:10246000004F1DBFDFED2D0A9FED2D0AB1EE411A81
:10247000DFED2C0A08BF9FED2C0AF8EE001A21EEC2
:10248000218A05E0DFED290A68EE088AB0EE600ACD
:102490009FED271ADFED271A30EE080A48EE811A61
:1024A0009FED251A08EEA11ADFED241A48EE811AD5
:1024B0009FED231A08EEA11A68EE281ABDEC028BD4
:1024C00001EE810A30EE200A10BD4FF0E440B0EB7F
:1024D000440F0CD918EE100AFFF78AFF042808BF32
:1024E00000F012F9B0EE480ABDEC028B10BD4FF0BF
:1024F0007F40B0EB440F07D2B0EE480ABDEC028B30
:10250000BDE8104000F0F5B8012000F015F9BDEC71
:10251000028BBDE8104000F0EFB800000000C9BF1A
:1025200022AAFDB90000C93F22AAFD39000000001F
:1025300024FE1C3DC78AD83C1E67383D1B93993D3D
:10254000AFAA2A3E10B54FF00E412DED028BB0EE32
:10255000408A18EE100A01EB4001B1F1145F5CD221
:102560004FF0FE41B1EB400F24BF9FED400AF0EE6B
:10257000400A12D210F0004F19BFDFED3D0A9FED67
:102580003D0ADFED3D0A9FED3D0AFFEE001A81EEA8
:10259000881AB0EE418A18EE100A4FF0FC41B1EBF8
:1025A000400F1BD210F0004FDFED351A9FED352A9A
:1025B0001DBFBEEE001A70EEE10A30EE420AB6EE22
:1025C000001A04BF70EEA10A30EE020A38EE412A6A
:1025D000F7EE001A48EE011A82EE218ADFED2A1A80
:1025E0009FED2A2A28EE081A01EE212ADFED281A8B
:1025F00041EE021A9FED272A01EE212ADFED261A6D
:1026000041EE021A28EE011A01EE210A30EE080A04
:10261000BDEC028B30EE200A10BD4FF0E441B1EB6F
:10262000400F0CD918EE100AFFF7E2FE042808BF8D
:1026300000F06AF8B0EE480ABDEC028B10BD4FF016
:102640007F41B1EB400F07D2B0EE480ABDEC028BE0
:10265000BDE8104000F04DB810F0004F14BF9FEDE2
:102660000F0A9FED0F0ABDEC028B10BD00000000A9
:102670000000C9BF22AAFDB90000C93F22AAFD3946
:102680000060ED3EC30ACE372DAD65BD8FB8D53D98
:102690000FB511BE61C84C3EA8AAAABEDB0FC9BFC8
:1026A000DB0FC93F2DED020B019820F00040019097
:1026B0009DED000B02B0704710B52DED028BB1EE11
:1026C000C08A18EE100A20F00040C0F1FF40C00F91
:1026D0000AD010EE100A20F00040C0F1FF40C00FF9
:1026E00004BF012000F028F8B0EE480ABDEC028BD0
:1026F00010BD30EE000A7047DFED020A80EEA00A3E
:1027000070470000000000009FED020A20EE000A62
:10271000704700000000001002E008C8121F08C146
:10272000002AFAD170477047002001E001C1121F52
:10273000002AFBD170470000014908607047000083
:10274000C80000200B48008840F0040009490880B8
:102750000846008840F0100008800748008840F4D0
:102760008070054908800548008840F4004003490E
:102770000880704714040048140C004814080048EE
:102780000D4800884FF6FB7108400B490880084649
:1027900000884FF6EF710840074908800748008815
:1027A0004FF6FF6108400549088005480088C0F3DE
:1027B0000E0003490880704714040048140C0048B8
:1027C0001408004810B52DED088BB0EE408AF0EEED
:1027D000608A18EE900AFDF7A5FE41EC190B18EE81
:1027E000100AFDF79FFE41EC1B0BB0EE4B0AF0EE1A
:1027F0006B0AFFF757FFB0EE40AAF0EE60AA53EC69
:10280000192B51EC1A0BFDF7A1FE03D89FED0E0A10
:10281000B0EE408AB4EEE88AF1EE10FA03DD38EE4D
:10282000680AB0EE408AB1EE680AB4EEC08AF1EEF2
:1028300010FA03D238EE280AB0EE408AB0EE480A09
:10284000BDEC088B10BD00000000000010B52DEDA0
:10285000028B9548007800287DD0944800780128A4
:1028600006D0022836D0032866D0042874D198E018
:102870008F4890ED000ADFED8F0A80EE801A9FED01
:102880008E0A21EE000AB0EE408A8C4890ED010AD3
:10289000F0EE400A8A49B0EE480A8A48FEF7E8FBA3
:1028A000864890ED000AF0EE400A87499FED870ABE
:1028B0008748FEF7DDFB814890ED021AF0EE410AF1
:1028C000844890ED021AB0EE410A83498348FEF72E
:1028D000CFFBBFE0764890ED000ADFED760A80EE90
:1028E000801A9FED7F0A21EE000AB0EE408A7348FD
:1028F00090ED010AF0EE400A7149B0EE480A7148C5
:10290000FEF7B6FB6D4890ED000AF0EE400A6E4906
:102910009FED6E0A6E48FEF7ABFB684890ED021A19
:10292000F0EE410A6B4890ED021AB0EE410A6A4996
:102930006A48FEF79DFB8DE0604890ED010AF0EEDD
:10294000400A5F499FED610A5E48FEF791FB5848D7
:10295000D0ED000A01E07EE055E09FED561A81EED1
:10296000200ADFED600A20EE200AB0EE408A5348CC
:1029700090ED000AF0EE400A5349B0EE480A544880
:10298000FEF776FB4D4890ED021AF0EE410A5148F1
:1029900090ED021AB0EE410A4F495048FEF768FB2D
:1029A00058E0464890ED010AF0EE400A44499FED98
:1029B000470A4448FEF75CFB3D48D0ED000A9FED16
:1029C0003D1A81EE200ADFED480A20EE200AB0EE23
:1029D000408A3A4890ED000AF0EE400A3A49B0EEDB
:1029E000480A3B48FEF744FB344890ED021AF0EEEB
:1029F000410A384890ED021AB0EE410A364937488C
:102A0000FEF736FB26E02D4890ED010AF0EE400A75
:102A10002B49364890ED000A2A48FEF729FB274843
:102A200090ED000AF0EE400A2749314890ED000A87
:102A30002748FEF71DFB214890ED021AF0EE410AEF
:102A4000244890ED021AB0EE410A23492348FEF7CC
:102A50000FFB00BF25E0194890ED010AF0EE400A97
:102A60001749224890ED000A1648FEF701FB13486B
:102A700090ED000AF0EE400A13491D4890ED000A5F
:102A80001348FEF7F5FA0D4890ED021AF0EE410AF0
:102A9000104890ED021AB0EE410A0F490F48FEF7B8
:102AA000E7FABDEC028B10BD1C00002045000020A1
:102AB00004000020333373400000614450020020C2
:102AC00078000020800100207C0000200000000031
:102AD000B40100203802002080000020E80100201E
:102AE000000061C400004844000048C40C000020FD
:102AF0000800002010B521480078022809D020489D
:102B00000078012805D1B2EE040A1E4880ED000AC3
:102B100004E09FED1D0A1B4880ED000A1B4890ED64
:102B2000023ADFED1B3A23EE233AF0EE432A90ED12
:102B3000013ADFED173A23EE233AB0EE432A90ED47
:102B4000003ADFED133A23EE233AF0EE431A114830
:102B500090ED023AB0EE431A90ED013AF0EE430ADE
:102B600090ED003AB0EE430A9FED0B3A00F044FDC1
:102B70000A4A111F081F00F0CBFC10BD39000020CD
:102B800075000020180000209A99193F4402002087
:102B90000000C842500200200AD7A33BD400002006
:102BA00010B500245BE02F49601C31F8100002EEE4
:102BB000100AB8EE422AF0EE421A2B49601C31F896
:102BC000100002EE100AB8EE422AB0EE421A254872
:102BD00030F8140002EE100AB8EE422AF0EE420A73
:102BE000084630F8140002EE100AB8EE422AB0EEA1
:102BF000420AFDF791FF1D4800EB840080ED000ABA
:102C00001849601C31F8100002EE100AB8EE422A92
:102C1000F0EE421A1449601C31F8100002EE100A5E
:102C2000B8EE422AB0EE421A0E4830F8140002EE16
:102C3000100AB8EE422AF0EE420A084630F81400B4
:102C400002EE100AB8EE422AB0EE420AFDF751FF3A
:102C5000074800EB840080ED000A601CC4B2082C19
:102C6000A1DB10BDEC380008DA380008D8000020DD
:102C7000F8000020F0EE401A11EE900A20F000411A
:102C8000C1F1FF41C90F31B130EE810AB6EE002A21
:102C900020EE020A7047F4EEE01AF1EE10FA02D2CA
:102CA000B0EE600AF6E7F4EEC11AF1EE10FA02DDBA
:102CB000B0EE410AEEE7B0EE610AEBE700EE100A73
:102CC000B8EE400ADFED0F0A80EE201ABCEEC10A12
:102CD00010EE102AD1B2072900DD07210A4A02EBC3
:102CE0008102D2ED000A094A02EB810292ED001A3C
:102CF00000EE100AF8EE401AB0EE600A01EE810A0A
:102D0000704700000000EC42F8000020D8000020CE
:102D10002F480088002859D12E480078002855D027
:102D20002D480088401C2C49088008460088C82887
:102D300038DB9FED2A0A2A4880ED000A0020294945
:102D4000087025480088B0F58C7F26DB01202049DB
:102D500008800020204908809FED230A234880ED49
:102D6000070A9FED210A224880ED070A9FED1E0AFF
:102D7000204880ED070A9FED1C0A1F4880ED070AD6
:102D80009FED190A1D4880ED070A9FED1D0A1448A2
:102D900080ED000A02201B49087040F2B6301A4943
:102DA000088013E00C480088552804DC40F2B63057
:102DB000154908800AE000201349088001200949CC
:102DC00008709FED060A064880ED000A7047000073
:102DD00046000020450000201E0000203333D34071
:102DE000180000201C0000200000000080010020CE
:102DF00018010020B40100204C010020E80100204F
:102E00009A99193F440000203C00002010B52DED98
:102E1000028B0E48D0ED000A60EEA00A90ED011A78
:102E2000D0ED011A41EE210A90ED021AD0ED021AFE
:102E300041EE210AB0EE600AFFF73EFCB0EE408A98
:102E4000B0EE480ABDEC028B10BD00004402002029
:102E50002DE9F84381460C4615461E46089F4FF063
:102E600000084FF4A0304A4908600AE04849086861
:102E7000411E474A116020B9484600F009F9BDE8F3
:102E8000F8834FF400414846FDF7DBFE0028EDD102
:102E90004FF4005000230122294600904846FDF7D8
:102EA00015FF4FF4A0303A49086009E03849086836
:102EB000411E374A116018B9484600F0E9F8DEE7CC
:102EC00002214846FDF7BDFE0028EFD031463148CB
:102ED000FDF7FAFE4FF4A0302D49086009E02C49B7
:102EE0000868411E2A4A116018B9484600F0D0F817
:102EF000C5E740214846FDF7A4FE0028EFD04FF477
:102F000010504FF000733A46294600904846FDF7AE
:102F1000DDFE4FF000081DE04FF4A0301C490860B2
:102F200009E01B490868411E194A116018B9484652
:102F300000F0AEF8A3E704214846FDF782FE002822
:102F4000EFD04846FDF7BCFE2070641C08F101007C
:102F500000F0FF08B845DFD14FF4A0300C490860FD
:102F600009E00B490868411E094A116018B9484632
:102F700000F08EF883E720214846FDF762FE002826
:102F8000EFD020214846FDF74FFE002077E70000F4
:102F90005000002000580040F8B506460F46144681
:102FA0001D464FF4A0303949086009E037490868E8
:102FB000411E364A116018B9304600F069F8F8BD74
:102FC0004FF400413046FDF73CFE0028EED14FF4AF
:102FD0000050C3020122214600903046FDF776FEE4
:102FE0004FF4A0302949086009E028490868411ECB
:102FF000264A116018B9304600F04AF8DFE702218E
:103000003046FDF71EFE0028EFD029463046FDF77A
:103010005BFE4FF4A0301D49086009E01B490868B9
:10302000411E1A4A116018B9304600F031F8C6E75F
:1030300080213046FDF705FE0028EFD000204FF03C
:1030400000730122214600903046FDF73FFE3946CD
:103050003046FDF739FE4FF4A0300C49086009E016
:103060000A490868411E094A116018B9304600F043
:103070000FF8A4E720213046FDF7E3FD0028EFD04C
:1030800020213046FDF7D0FD002098E750000020B9
:103090000146086840F400500860022070470000B4
:1030A00000B589B001218805FEF754F90121880592
:1030B000FEF740F9042206211948FDF7F7FC042227
:1030C00007211748FDF7F2FC4020079002208DF8F9
:1030D000200003208DF8210001208DF8220000201F
:1030E0008DF8230007A90E48FDF798FC8020079073
:1030F00007A90B48FDF792FC002003900190029075
:103100000490059006900748009069460648FDF730
:10311000A3FD01210448FDF789FD09B000BD0000B1
:10312000001400480404200000580040F0EE400A5B
:10313000F6EE001A60EEA11AB0EE611AB0EE600A67
:1031400010EE100A0749A1EB600000EE100A21EE14
:10315000002AF7EE081A42EE401A61EE801AB0EE2D
:10316000610A7047DF59375F00244FF48060FDF734
:1031700049FFFEF7C7FEFDF719FE00F075F9FDF7F0
:10318000BBFDFDF793FEFFF78BFF00F029F9FEF77B
:1031900017F812E0FEF718FA0520FDF728FC601C6E
:1031A00084B2322094FBF0F100FB114008B9FEF725
:1031B000DFFEB4F57A7F00DB002421480078002888
:1031C000E8D000BFFDF7F6FCFFF7BCFA05E04FF4CE
:1031D000FA70FDF70CFCFDF7CBFE1A4800780028CA
:1031E000F5D1FFF7AFFAFFF7DBFC022016490870B4
:1031F00001201649087022E005210020FDF7B4FCEB
:10320000134880ED000A0F48007810B91148007883
:1032100068B1FEF7ADFE0B48007810B1FDF7A8FECF
:1032200009E00C48007830B1FFF79EF803E0FFF7A3
:10323000A7FAFEF76FFD4FF49670FDF7D8FBDBE7BA
:10324000540000203A00002044000020000000202C
:10325000040000203000002010B5554890ED000A11
:103260009FED541AC1EE000A5348008800EE100A80
:10327000B8EE400A20EE800ABCEEC00A10EE100A3A
:103280004D4908800846008800EE100AB8EE400A52
:103290004A48D0ED000A30EE200A4948D0ED000A35
:1032A00030EE200A4748D0ED000A30EE200ABCEE8E
:1032B000C00A10EE100A444908803F48008800EE1A
:1032C000100AB8EE400A3D48D0ED000A30EE600A20
:1032D0003B48D0ED000A30EE600A3A48D0ED000AD3
:1032E00030EE200ABCEEC00A10EE100A3749088002
:1032F0003148008800EE100AB8EE400A2F48D0EDA1
:10330000000A30EE600A2E48D0ED000A30EE200AA6
:103310002C48D0ED000A30EE600ABCEEC00A10EE78
:10332000100A2B4908802448008800EE100AB8EEE5
:10333000400A2248D0ED000A30EE200A2048D0EDA5
:10334000000A30EE600A1F48D0ED000A30EE600A35
:10335000BCEEC00A10EE100A1E4908801E48007814
:1033600001280BD128231A4619461846FDF7A4FF59
:10337000FFF74CFD194880ED000A18E01648007868
:1033800002280ED11148008803B21248008802B208
:103390000D48008801B20E48008800B2FDF78CFF8E
:1033A00005E000231A4619461846FDF785FF10BDB3
:1033B00004000020666686403C0000207800002063
:1033C0007C00002080000020840000208600002077
:1033D000880000208A000020390000208C00002096
:1033E00010B56B23D02280211E48FFF7D5FD642045
:1033F000FDF7FDFA6823D02207211A48FFF7CCFD1C
:103400006B23D02203211748FFF7C6FD1923D022D2
:1034100000211448FFF7C0FD1A23D02201211148D2
:10342000FFF7BAFD1D23D02205210E48FFF7B4FD9A
:103430003723D02220210B48FFF7AEFD3823D022BE
:1034400001210848FFF7A8FD1B23D02218210548B9
:10345000FFF7A2FD1C23D02208210248FFF79CFDA4
:1034600010BD0000005800401CB52748406940F4DA
:103470008010254948610846406940F400304861A1
:10348000022208214FF09040FDF710FB01220F218E
:103490004FF09040FDF70AFB09220E211B48FDF773
:1034A00005FB09220F211948FDF700FB4FF40140ED
:1034B000009002208DF8040000208DF80600032003
:1034C0008DF8050000208DF8070069464FF0904008
:1034D000FDF7A4FA4FF44040009002208DF804005C
:1034E00000208DF8060003208DF8050000208DF8DF
:1034F000070069460548FDF791FAFEF7BBFDFEF7A8
:10350000DDFDFEF779FD1CBD0010024000040048FF
:1035100070B52DED048B04460D461646314890EDEE
:10352000000A3148D0ED000A20EE200A2F48D0EDE5
:10353000000A2F4890ED001A00EEC10AF0EE000AD2
:1035400020EE200AB0EE408A284890ED000A254877
:10355000D0ED000A20EE200A2548D0ED000A2248CE
:1035600090ED001A00EE810AF0EE000A20EE200A2B
:10357000F0EE408A1D4890ED000A20EE000A19483E
:10358000D0ED000A90ED001A00EEC10A1848D0ED07
:10359000000A90ED001A00EEC10A1348D0ED000AAF
:1035A00090ED001A00EE810AB0EE409AB0EE480AA3
:1035B000FEF732FFB1EE400ADFED0E0A20EE200AE0
:1035C00085ED000A88EE890AF0EE409AFEF7BAFF10
:1035D000DFED080A20EE200A84ED000ABDEC048B22
:1035E00070BD0000240000202C00002020000020DE
:1035F000280000203333654200B52DED108B83B0D9
:10360000B0EE408AF0EE608AB0EE419AB0EE61BA58
:10361000B0EE42AAF0EE62AAF0EE43BA9FED990A2C
:1036200028EE000AB0EE408A9FED960A28EE800A46
:10363000F0EE408A9FED930A29EE000AB0EE409A20
:10364000914890ED000AB0EE40CA6BEE0B0A4AEECC
:103650000A0A4AEEAA0AB0EE600AFFF767FDF0EE2A
:10366000409A2BEE290AB0EE40BA2AEE290AB0EEB3
:1036700040AA2AEEA90AF0EE40AA844890ED000A7A
:103680008348D0ED000A20EE200A8248D0ED000ADF
:10369000814890ED001A00EEC10AB0EE40EA7D4884
:1036A00090ED000A7948D0ED000A20EE200A7A4811
:1036B000D0ED000A764890ED001A00EE810AF0EE97
:1036C00040EA7448D0ED000A90ED001AB6EE000A08
:1036D00010EE810A6E48D0ED000A90ED001A00EE5F
:1036E000810AB0EE40FA2AEE0F0A0AEEEE0AF0EE78
:1036F00040FA2AEE8E0A0BEE4F0A8DED020A2BEEEF
:103700002E0A0AEE4E0A8DED010AB0EE480A0CEEC2
:103710002F0AB0EE408A9DED020AF0EE680A4CEEE8
:10372000000AF0EE608A9DED010AF0EE490A4CEEC7
:10373000000AB0EE609AB6EE000A2BEE800A20EE88
:10374000080AB0EE408AB6EE000A2BEE800A20EEA0
:10375000280AF0EE408AB6EE000A2BEE800A20EE30
:10376000090AB0EE409A4B4890ED000AF0EE40CACC
:10377000464890ED000AB0EE40DA474890ED000A66
:10378000F0EE40DAB1EE4D0A20EE080A0DEEE80A3E
:103790003F48D0ED000A00EEC90A3E48D0ED000ACD
:1037A00030EE200A80ED000A2CEE880A0DEE890A20
:1037B0003748D0ED000A00EEE80A3448D0ED000AA0
:1037C00030EE200A80ED000A2CEEA80A0DEE490A20
:1037D0002F48D0ED000A00EE880A2F48D0ED000AED
:1037E00030EE200A80ED000A2CEE890A0DEE280A40
:1037F0000DEEC80A2648D0ED000A30EE200A80ED12
:10380000000A2448D0ED000A60EEA00A1F4890ED9F
:10381000001AD0ED001A41EE210A1F4890ED001A5F
:10382000D0ED001A41EE210A194890ED001AD0EDB2
:10383000001A41EE210AB0EE600AFFF777FCF0EEC5
:10384000409A144890ED000A20EE290A80ED000A03
:103850000E4890ED000A20EE290A80ED000A0E487D
:1038600090ED000A20EE290A80ED000A084890ED4C
:10387000000A20EE290A80ED000A03B0BDEC108B8F
:1038800000BD0000728A8E3C180000202400002039
:103890002C000020200000202800002010B500EEA1
:1038A000100A2DED028BB1EEC08A18EE100A20F03E
:1038B0000040C0F1FF40C00F0AD010EE100A20F007
:1038C0000040C0F1FF40C00F04BF0120FEF734FFED
:1038D00018EE100ABDEC028B10BD00007600EC0063
:1038E0006201D8014E02C4023A03B60300001E0072
:1038F0005000A000FA002C019001F40158020000D1
:103900002039000800000020CC0000001827000823
:10391000EC390008CC00002094050000282700089E
:103920000000000000000000000000000000000097
:103930000000000000000000CDCC4C3F0000000063
:103940000000803F000000000000000000000000B8
:103950000000000000000000000001000000000066
:103960000000000000000000000000000000000057
:103970000040010000000000000000000000000006
:103980000000000000000000000000000000000037
:103990000000000000000000000000000000000027
:1039A0000000000000000000000000000000000017
:1039B00000A24A040000000000000000010203040D
:1039C00006070809000000000102030401020304C5
:1039D0000607080902040608020406080A0C0E106D
:0C39E00014181C2024282C3000000000CB
:040000050800018965
:00000001FF
